:100000000C945D000C9485000C9485000C94850084
:100010000C9485000C9485000C9485000C9485004C
:100020000C9485000C9485000C9485000C9485003C
:100030000C9485000C9485000C9485000C9485002C
:100040000C948D130C9485000C94880F0C94D7138A
:100050000C9485000C9485000C9485000C9485000C
:100060000C9485000C9485000000000024002700FB
:100070002A0000000000250028002B0004040404CE
:100080000404040402020202020203030303030342
:10009000010204081020408001020408102001021F
:1000A00004081020000000080002010000030407FB
:1000B0000000000000000000FD1311241FBECFEF60
:1000C000D8E0DEBFCDBF13E0A0E0B1E0EAE4F6E3A4
:1000D00002C005900D92A630B107D9F727E0A6E03F
:1000E000B3E001C01D92A830B207E1F710E0CDE502
:1000F000D0E004C02197FE010E94F118CC35D10751
:10010000C9F70E946F150C94231B0C94000086EA1B
:1001100091E0089587EC91E0089587ED91E00895CE
:1001200086E091E0089588EF91E0089589E192E0FA
:1001300008958CE292E008958DE492E0089586E6B9
:1001400092E0089587E892E00895FC01DB014C916C
:1001500050E060E070E042835383648375831196BE
:100160008C911197582B4283538364837583129625
:100170008C911297682B4283538364837583139603
:100180008C911397782B42835383648375831496E1
:100190004C91149750E060E070E04683578360878D
:1001A000718715968C911597582B468357836087D6
:1001B000718716968C911697682B468357836087B4
:1001C000718717968C91782B468357836087718748
:1001D00088E090E00895DC01FB0112968C91129763
:1001E000808313968C911397818314968C91149726
:1001F000828315968C911597838316968C9116970A
:10020000848317968C911797858318968C911897ED
:10021000868319968C91878388E090E008954F92A9
:100220005F926F927F928F929F92AF92BF92EF9266
:10023000FF920F931F93CF93DF9300D000D0CDB7E1
:10024000DEB77C018B01FB01808190E0A0E0B0E093
:10025000F70182839383A483B583FB012181922BD1
:10026000F70182839383A483B583FB012281A22BB0
:10027000F70182839383A483B583FB012381B22B8F
:10028000F70182839383A483B583FB01848190E08B
:10029000A0E0B0E0F70186839783A087B187FB01D8
:1002A0002581922BF70186839783A087B187FB0175
:1002B0002681A22BF70186839783A087B187FB0154
:1002C0002781B22BF70186839783A087B187FB0133
:1002D000808590E0A0E0B0E0F70182879387A48753
:1002E000B587FB012185922BF70182879387A4872D
:1002F000B587FB012285A22BF70182879387A4870C
:10030000B587FB012385B22BF70182879387A487EA
:10031000B587645F7F4FCE0101960E944B108981A3
:100320009A81AB81BC814C015D01F0E18F0E911C83
:10033000A11CB11CA801415F5F4FFA0120E130E030
:100340002901612C712C481459046A047B0428F497
:10035000618161932F5F3F4FF3CFF801E80FF91FE1
:100360001786F7015787468740960F900F900F909A
:100370000F90DF91CF911F910F91FF90EF90BF9061
:10038000AF909F908F907F906F905F904F90089567
:100390004F925F926F927F928F929F92AF92BF9295
:1003A000CF92DF92EF92FF920F931F93CF93DF9341
:1003B000CDB7DEB728970FB6F894DEBF0FBECDBF1E
:1003C0008C016B0102960E940F015C01B601680F5F
:1003D000791FCE0101960E944B10C50104964980F9
:1003E0005A806B807C80AC01092E000C660B770B69
:1003F000440D551D661D771D23E0A20EB11CF601AC
:10040000EA0DFB1D9C014901A12CB12C8416950617
:10041000A606B70628F4A181A1932F5F3F4FF3CF23
:100420007C01E40CF51CF601EE0DFF1DDF011197B8
:100430001C9201978C0D9D1DD80153969C938E9311
:1004400052972181828190E0A0E0B0E0DC01992701
:100450008827922B2081822B2381AC01BD01722B36
:10046000D80154964D935D936D937C935797258156
:10047000868190E0A0E0B0E0DC0199278827922BEC
:100480002481822B2781AC01BD01722BD8015896A3
:100490004D935D936D937C935B972185828590E06E
:1004A000A0E0B0E0DC0199278827922B2085822BE1
:1004B0002385AC01BD01722BD8015C964D935D93F1
:1004C0006D937C935F972585868590E0A0E0B0E0F2
:1004D000DC0199278827922B2485822B2785AC0164
:1004E000BD01722BD80190964D935D936D937C93D3
:1004F00093972189828990E0A0E0B0E0DC01992700
:100500008827922B2089822B2389AC01BD01722B75
:10051000D80194964D935D936D937C9397978489BE
:1005200098968C939897858999968C932789808D36
:1005300090E0A0E0B0E0DC0199278827922B268983
:10054000822B218DAC01BD01722BD8019A964D935F
:100550005D936D937C939D97828D9E968C93B7014E
:10056000655E7F4F6C0D7D1DCE0105960E944B1080
:100570009701215E3F4F8D819E81AF81B8854901F2
:10058000032E000CAA08BB08880E991EAA1EBB1ECB
:10059000EEE1EE0EF11CF601EE0DFF1DA9012A01A0
:1005A000612C712C481459046A047B0428F461817D
:1005B00061934F5F5F4FF3CF820F931FF601E80FF8
:1005C000F91FDF0111971C9221503109C20ED31E71
:1005D000D801D096DC92CE929F972081D1962C9311
:1005E000019628960FB6F894DEBF0FBECDBFDF91FF
:1005F000CF911F910F91FF90EF90DF90CF90BF9020
:10060000AF909F908F907F906F905F904F900895E4
:100610004F925F926F927F928F929F92AF92BF9212
:10062000EF92FF920F931F93CF93DF9300D000D0F0
:10063000CDB7DEB77C018B01FB018191BF01F701D2
:100640008283CE0101960E944B1089819A81AB81F1
:10065000BC814C015D01F5E08F0E911CA11CB11C09
:10066000A8014C5F5F4FFA0125E030E02901612CC1
:10067000712C481459046A047B0428F46181619345
:100680002F5F3F4FF3CFF801E80FF91F1482F701F6
:100690005483438305960F900F900F900F90DF9136
:1006A000CF911F910F91FF90EF90BF90AF909F90CF
:1006B0008F907F906F905F904F9008954F925F92D0
:1006C0006F927F928F929F92AF92BF92CF92DF9262
:1006D000EF92FF920F931F93CF93DF93CDB7DEB7C7
:1006E0002C970FB6F894DEBF0FBECDBF7C018B01F7
:1006F000DB018C9190E0F7019383828311962C911A
:10070000922B938382836E5F7F4FCE0101960E946E
:100710004B1089809A80AB80BC8024013501F6E0C3
:100720004F0E511C611C711C98012B5F3F4FF9014A
:1007300086E090E0AC0160E070E044155505660588
:10074000770520F4418141930196F4CFF801E80D3B
:10075000F91D1582D70115963C932E931497B40179
:100760006A5F7F4F600F711FCE0105960E944B108C
:10077000BAE08B0E911C4D805E806F807884A4015E
:10078000092C000C660B770B440D551D661D771D5B
:10079000D801A80DB91DCD01801B910B5C01C12CA6
:1007A000D12CA416B506C606D70628F48D91FD01F6
:1007B00032978083F0CF5401A40CB51CB8016A0DA8
:1007C0007B1DFB0131971082C4010197800F911F9F
:1007D000F70197838683CE0109960E944B109501FD
:1007E0002C5F3F4F89859A85AB85BC852901032EF7
:1007F000000C66087708480E591E6A1E7B1EF5011C
:100800003396E00FF11FA9014A01A12CB12C8414E9
:100810009504A604B70428F4618161934F5F5F4F8C
:10082000F3CF820F931FF801E80FF91FDF01119733
:100830001C9221503109020F131FD70119961C93E6
:100840000E9318972181428150E060E070E0BA0178
:1008500055274427522B2081422B2381722BF701ED
:10086000428753876487758704962C960FB6F89451
:10087000DEBF0FBECDBFDF91CF911F910F91FF90D3
:10088000EF90DF90CF90BF90AF909F908F907F9030
:100890006F905F904F900895EF92FF920F931F9388
:1008A000CF93DF938C01EB01FC01828188838381EC
:1008B000898384818A8385818B8386818C838781E8
:1008C0008D8380858E8381858F83828588878385CC
:1008D000898784858A8785858B87A685B785FD016D
:1008E00001900020E9F731977F01EA1AFB0AA7017E
:1008F00060E070E0CE010C960E947910F8016685E8
:100900007785A701CE0140960E94C219C701409683
:10091000DF91CF911F910F91FF90EF900895CF92AB
:10092000DF92EF92FF920F931F93CF93DF93EC012F
:100930007B0102960E944C048C01AA89BB89FD01AF
:1009400001900020E9F731976F01CA1ADB0AA6016E
:1009500060E070E0C701800F911F0E9479100C5F6A
:100960001F4F6A897B89A601C701800F911F0E94D2
:10097000C2190C0D1D1D4C892D899E898F89F70187
:10098000E00FF11F4083218392838383488D298D5B
:100990009A8D8B8D44832583968387834C8D2D8DF3
:1009A0009E8D8F8D408721879287838748A129A1BB
:1009B0009AA18BA144872587968787874CA12DA173
:1009C0009EA18FA1408B218B928B838B88A5848BDA
:1009D00089A5858B4AA52BA59CA58DA5468B278B24
:1009E000908F818F8EA5828FC8014B96AFA5B8A935
:1009F000FD0101900020E9F731976F01CA1ADB0A67
:100A0000A60160E070E08E0D9F1D0E947910015ECE
:100A10001F4F6FA578A9A601C701800F911F0E94E3
:100A2000C2190C0D1D1DF701E00FF11F89A980836C
:100A3000C8010196DF91CF911F910F91FF90EF9028
:100A4000DF90CF9008954F925F926F927F92AF9216
:100A5000BF92CF92DF92EF92FF920F931F93CF93AB
:100A6000DF93EC018B018A81FB0180838B81818381
:100A70008C8182838D818383DB0140E050E0BA0169
:100A8000E4E0F0E01496CA80DB80EC80FD80CF01CA
:100A900004964C155D056E057F05C8F42A853B85D7
:100AA000E20FF31F3497D080F18032812381DC92F2
:100AB0001196FC92119712963C93129713962C93D1
:100AC0001397FC014F5F5F4F6F4F7F4FDBCF5F018D
:100AD000A00EB11E2C85F50120832D8521832E8546
:100AE00022832F852383D50140E050E0BA01CC84D6
:100AF000DD84EE84FF849C012C5F3F4F4C155D0527
:100B00006E057F05F8F4CD018A199B09EC88FD88F4
:100B10008E0D9F1DFC01D080E180F28083811496B0
:100B2000DC9214971596EC9215971696FC921697F0
:100B300017968C931797C9014F5F5F4F6F4F7F4F89
:100B40001496D5CFF801E80FF91F8E8980838F891D
:100B50008183888D8283898D83837901A12CB12C37
:100B6000412C512C32018E899F89A88DB98D481650
:100B700059066A067B0680F5EC8DFD8DEA0DFB1D9E
:100B8000A081B181FD0101900020E9F731976F014B
:100B9000CA1ADB0AA60160E070E0C8018E0D9F1D35
:100BA0000E947910F4E0EF0EF11CEC8DFD8DEA0D42
:100BB000FB1D60817181A601C8018E0D9F1D0E94E1
:100BC000C219EC0CFD1C8FEF481A580A680A780A03
:100BD000E2E0AE0EB11CC7CFC701DF91CF911F91EC
:100BE0000F91FF90EF90DF90CF90BF90AF907F90EC
:100BF0006F905F904F900895EF92FF920F931F9325
:100C0000CF93DF938C017B01DC0112962C9112971C
:100C1000FB012193CF011396ED91FC911497EF0105
:100C200009900020E9F72197CE1BDF0BAE0160E0B1
:100C300070E00E947910D80113966D917C91149701
:100C4000AE01C70105960E94C219CE010596DF913B
:100C5000CF911F910F91FF90EF900895CF92DF9267
:100C6000EF92FF920F931F93CF93DF937C018B0141
:100C7000DC0112968C911297FB01808313968C9164
:100C8000139781831496ED91FC911597EF010990CC
:100C90000020E9F72197CE1BDF0BAE0160E070E08A
:100CA000C80102960E947910D70114966D917C912B
:100CB0001597AE01C80106960E94C219CE0106968C
:100CC000F701A681B781FD0101900020E9F7319776
:100CD0006F01CA1ADB0AA60160E070E0800F911F65
:100CE0000E9479102A96D70116966D917C911797DC
:100CF000A601C8018C0F9D1F0E94C219CC0DDD1DDD
:100D0000D7011896ED91FC911997DF010D90002005
:100D1000E9F711976D01CE1ADF0AA60160E070E0D5
:100D2000C8018C0F9D1F0E9479102496F7016085E1
:100D30007185A601C8018C0F9D1F0E94C219C601B2
:100D40008C0F9D1FD7011A966C911A971B964C9188
:100D50001B971C963C911C971D962C91F801E80F4F
:100D6000F91F60834183328323830496DF91CF91FF
:100D70001F910F91FF90EF90DF90CF9008952F92E9
:100D80003F924F925F926F927F928F929F92AF921B
:100D9000BF92CF92DF92EF92FF920F931F93CF9368
:100DA000DF93CDB7DEB760970FB6F894DEBF0FBE06
:100DB000CDBF8C016B01DB018D909D90AD90BC90FF
:100DC000FC0182819381A481B58188159905AA05CA
:100DD000BB0570F4B401660F771F660F771F82851D
:100DE00093850E94F718D8011B969C938E931A97AF
:100DF000F80182829382A482B5829601812C912C83
:100E0000540144E050E0B8016A5F7F4F2C5F3F4FD0
:100E1000F80182819381A481B581FA0134961F0182
:100E200088169906AA06BB0650F5D9011196FC90C2
:100E3000119712968C9190E0A0E0B0E0DC01992728
:100E400088279F29F901F0808F29F380BF29F801B5
:100E500086839783A087B187DA01A10114978285E1
:100E60009385A80FB91F84E0FB0101900D928A952C
:100E7000E1F7FFEF8F1A9F0AAF0ABF0AC7CF4601FB
:100E8000840E951ED4018C9111969C911197129607
:100E90004C901297512C612C712C32015524442412
:100EA000592A482A13968C91782A5F01F801848583
:100EB0009585A685B78584159505A605B70570F4B3
:100EC000B201660F771F660F771F848995890E948C
:100ED000F718D80155969C938E935497F801448641
:100EE000558666867786C401412C512C32019801C3
:100EF000205F3F4FD8011C964D915D916D917C9183
:100F00001F97F5013496441655066606770698F540
:100F1000DC011596FC90159716964C91169750E0AB
:100F200060E070E0BA01552744275F291496FC90D1
:100F300014974F291796FC907F29D80150964D930E
:100F40005D936D937C9353975F01AC0148195909E8
:100F500054960D90BC91A02DA40FB51F44E0F9014B
:100F600001900D924A95E1F7BFEF4B1A5B0A6B0AAD
:100F70007B0A0496BFCFD601AA0DBB1D8C9111969A
:100F80009C91119712968C901297912CA12CB12CB8
:100F9000540199248824992A882A13968C91B82A76
:100FA0007F01F80186899789A08DB18D88159905F3
:100FB000AA05BB0560F4B401660F771F848D958D7B
:100FC0000E94F718D8015D969C938E935C97F80168
:100FD000868A978AA08EB18E212C312C812C912C5F
:100FE00054019801265E3F4F3A872987F801868988
:100FF0009789A08DB18D88169906AA06BB0608F0C0
:101000005FC0B6016E0D7F1DCE0101960E944B1090
:1010100097012C5F3F4F388B2F8749815A816B8115
:101020007C81C901330FAA0BBB0B2C013D01440E7F
:10103000551E661E771E4B865C866D867E8623E077
:10104000E20EF11CF601EE0DFF1D2F853889C90156
:10105000A0E0B0E04B845C846D847E8484159505AB
:10106000A605B70528F4A181A1932F5F3F4FEFCFCD
:101070006F847888460D571DF601E40FF51F3197F0
:101080001082C30101978C0D9D1DD8015B969C9326
:101090008E935A977A015C96ED91FC915D97E20DE3
:1010A000F31DA985BA858D919C9191838083BFEFB3
:1010B0008B1A9B0AAB0ABB0AE2E02E0E311C96CFBC
:1010C000C70160960FB6F894DEBF0FBECDBFDF91AB
:1010D000CF911F910F91FF90EF90DF90CF90BF9035
:1010E000AF909F908F907F906F905F904F903F90C8
:1010F0002F900895089580E090E00895FC01538DAD
:10110000448D252F30E0842F90E0821B930B5417E1
:1011100010F0CF96089501970895FC01918D828D6E
:10112000981761F0828DDF01A80FB11D5D968C913B
:10113000928D9F5F9F73928F90E008958FEF9FEF46
:101140000895FC01918D828D981731F0828DE80F02
:10115000F11D858D90E008958FEF9FEF0895FC01BC
:10116000918D228D892F90E0805C9F4F821B910989
:101170008F739927089580E090E0892B29F00E94D1
:101180005F1181110C940000089580E890E00895AB
:10119000EF92FF920F931F93CF93DF938C017B010C
:1011A000C1E0D0E0D801ED91FC910190F081E02DFB
:1011B000C80109958C179D0754F0CE15DF0521F461
:1011C000F801D78BC68B03C0CC0FDD1FEBCFD80146
:1011D00056968D919C915797DF91CF911F910F91CA
:1011E000FF90EF9008958A549D4FFC0180810895EF
:1011F000AF92BF92CF92DF92EF92FF920F931F9325
:10120000CF93DF9300D000D01F92CDB7DEB7643606
:1012100071053CF0FC01EA54FD4F2081222309F4C2
:1012200077C0DA017B018C01BC01695C7E4FED91D6
:10123000FC910190F081E02DCA010995680120ED33
:10124000C21A2EEFD20A2FEFD6012C93F801EF5CD1
:10125000FE4F2EEF20833196808331969083319616
:10126000292F280F209520833196E0821696FC9234
:1012700045E050E020E030E0DC011696A417B50709
:1012800034F06191260F311D4F5F5F4FF7CF7C0126
:10129000B8E0EB0EF11C800F911FFC01E95CFE4FE2
:1012A00020952083E9E1EE16E1E0FE06BCF456014C
:1012B000C5018C199D098E159F056CF5D8011296F4
:1012C0008D919C911397F50161915F01DC01ED9186
:1012D000FC910190F081E02D0995EACF86E291E042
:1012E0009A83898383E08B8385E992E09D838C8355
:1012F000D801ED91FC910190F081E02DAE014F5F9E
:101300005F4F67E070E0C80109958FEF9FEF04C061
:1013100080E090E001C0C7010F900F900F900F90F8
:101320000F90DF91CF911F910F91FF90EF90DF9081
:10133000CF90BF90AF9008958EEC92E008958FEE1D
:1013400092E00895FC0182AD93AD08952F923F92F3
:101350004F925F926F927F928F929F92AF92BF92C5
:10136000CF92DF92EF92FF920F931F93CF93DF9371
:10137000CDB7DEB7A6970FB6F894DEBF0FBECDBFD0
:101380008C010E9449134B015C01980125543D4F8B
:101390003E8B2D8BF90180819181A281B381A501C2
:1013A0009401281B390B4A0B5B0BDA01C901893FF9
:1013B0009A42A105B10510F035971082180144E555
:1013C000241A4DEF340AD1018D919C91892B79F02B
:1013D000F801E154FD4F80819181A281B38188158C
:1013E0009905AA05BB0518F4F10111821082980134
:1013F0002C543D4F3A8B298BA80140555D4F5C8B97
:101400004B8BC8014896988F8F8BD801AA54BD4F3B
:10141000BC8FAB8FF801EC53FD4FFE8FED8F215F3A
:101420003F4F38A32F8F42505109588B4F87865614
:101430009D4F9A8F898F1996BAA3A9A3A5019401EC
:101440002C5E3F4F4F4F5F4F2BA33CA34DA35EA39A
:10145000F80184899589A689B789892B8A2B8B2BDA
:1014600081F4D80112968D919C911397DC01ED9136
:10147000FC910284F385E02D09959C0197FF14C02F
:101480008FC20E944913DC01CB0188199909AA096E
:10149000BB09F801C488D588E688F788C816D9063C
:1014A000EA06FB06F0F6A3C2A989BA898D919C9140
:1014B0001197820F931F8D939C93F101408151816D
:1014C00047305105D9F4A98DBA8D8D919C91119712
:1014D000AC014F5F5F4F4D935C93F801E80FF91F2C
:1014E000208FEF85F8898081918101979183808396
:1014F000892B09F0ADCF88E090E032C0411551054D
:1015000039F52F3F310589F481E090E0F1019183B5
:1015100080832BA13CA14DA15EA1A9A1BAA12D93CD
:101520003D934D935C93139793CF0E944913DC0135
:10153000CB0188199909AA09BB0989389341A105EA
:10154000B10508F485CFF801EA54FD4F10824FC26F
:1015500041305105A9F42E3F310531F482E090E08D
:10156000D1018D939C9374CFF10111821082AB8DC8
:10157000BC8D8C9181116CCFC8010E94551368CF2E
:101580004230510591F4EF85F88931832083A98D8C
:10159000BA8D1D921C9283E090E0F10191838083CB
:1015A000A989BA892D933C9353CF4330510569F4EF
:1015B000322F2227EF85F88980819181280F391FEA
:1015C0003183208384E090E0CBCF4430510581F417
:1015D00060E071E00E94BA188F3F910531F485E018
:1015E00090E0F1019183808333CF1182108230CF5C
:1015F0004530510571F4EB89FC893183208386E005
:1016000090E0D1018D939C93E989FA8931832083FD
:101610001FCF46305105A9F4322F2227AB89BC8950
:101620008D919C911197280F391F2D933C9387E042
:1016300090E0F10191838083AF85B8898D919C9171
:1016400057CF4830510509F003CFF10111821082C4
:1016500060E071E00E94BA188F3F910509F0F8CE62
:10166000AB89BC898D919C91009709F0C8C0C801D5
:101670000E94551382E391E09A8389831C821B8226
:101680008DEC92E09E838D8398878F839A878987DC
:101690001B861C861D861E866801B8EBCB1ABDEF23
:1016A000DB0A7801E6E8EE1AEDEFFE0A28E1422EA9
:1016B00055245394612C712CD601ED91FC913097F7
:1016C000A9F1848195819C838B83808191819E8304
:1016D0008D8382819381DC01ED91FC910480F58101
:1016E000E02D099598878F83D601ED91FC91828139
:1016F0009381DC01ED91FC910680F781E02D099545
:101700009A8789874B865C866D867E86D601ED91A9
:10171000FC9160857185D801ED91FC910190F0817B
:10172000E02DAE014F5F5F4FC8010995B2E0CB0ECF
:10173000D11CEC14FD0409F0BFCF98E1492E5524CB
:101740005394612C712CF701A081B1811097E1F1C4
:1017500012968D919C9113979C838B8314968D91F7
:101760009C9115979E838D83ED91FC911197048038
:10177000F581E02DCD01099598878F83D7018D9153
:101780009C91DC01ED91FC910680F781E02D09959B
:101790009A8789874B865C866D867E86D801ED9117
:1017A000FC91C080D180F70180819181DC01ED91B5
:1017B000FC910280F381E02D0995AE014F5F5F4FF0
:1017C000BC01C801F6010995F2E0EF0EF11CE2142C
:1017D000F30409F0B8CFF801EA54FD4F81E08083AB
:1017E000319680829182A282B382AD89BE898D9228
:1017F0009D92AD92BC9213978FEF9FEFFDC08A3000
:10180000910509F0A2C08EE391E09A8389831B823F
:101810001C821D821E821F82188619861A860E94CB
:101820004913F801C084D184E284F3849B01AC01A4
:101830002C193D094E095F0969017A016F89788D7C
:10184000CE0101960E94A500C701B60128EE33E043
:1018500040E050E00E947B16CB80DC80ED80FE8073
:10186000C20ED31EE41EF51ECB82DC82ED82FE8208
:101870009B01AC0160E472E48FE090E00E94AA1842
:10188000CF80D884E984FA84DC01CB018C0D9D1DC6
:10189000AE1DBF1D8F839887A987BA870E94491301
:1018A000CF80D884E984FA8436E3D31A35E6E30A94
:1018B00034ECF30A28EE33E040E050E00E947B165F
:1018C00029013A019B01AC0160E472E48FE090E0F1
:1018D0000E94AA18A7019601261B370B480B590B2B
:1018E000CA01B901CB80DC80ED80FE8031E0C31AF3
:1018F000D108E108F108A701960124193509460924
:10190000570929013A0120E03AEC4AE95BE30E94D9
:101910007B1673016201C20ED31EE41EF51ED801B0
:101920001C96CD92DD92ED92FC921F97F801608B90
:10193000718B828B938B0E944913AD89BE896D9305
:101940007D938D939C93139783CD8630910559F4A5
:101950006F89788D8D8D9E8D0E94BF0681E0EF8D01
:10196000F8A1808375CD8B30910521F4AB8DBC8DB2
:101970001C926ECDFC01E752FF4FEE0FFF1FE00FF0
:10198000F11F80819181009709F462CDDC01ED9116
:10199000FC910190F081E02D6F89788D099558CDEB
:1019A000F801EA54FD4F8081882321F17801B9E4E0
:1019B000EB1ABDEFFB0AF70180819181A281B3810F
:1019C000A5019401281B390B4A0B5B0BDA01C901F5
:1019D000853C9940A105B10568F0C8010E945513E6
:1019E000D7018D929D92AD92BC92139703C08EEF5A
:1019F0009FEF02C080E090E0A6960FB6F894DEBF9D
:101A00000FBECDBFDF91CF911F910F91FF90EF904F
:101A1000DF90CF90BF90AF909F908F907F906F900E
:101A20005F904F903F902F9008950F931F93CF9307
:101A3000DF938C01EC012696CE010E94C801D801EB
:101A4000D896ED91FC91D997CE01DF91CF911F915E
:101A50000F9109944F925F926F927F928F929F9213
:101A6000AF92BF92CF92DF92EF92FF92CF93DF932C
:101A7000CDB7DEB72C970FB6F894DEBF0FBECDBF43
:101A8000FC01228933898091BB039091BC032E5FB6
:101A90003240E1F48F3F5FEF950709F424C260E024
:101AA0002C960FB6F894DEBF0FBECDBFDF91CF915D
:101AB000FF90EF90DF90CF90BF90AF909F908F906E
:101AC0007F906F905F904F900C94D712FA83E983C8
:101AD0008F3FAFEF9A0719F061E00E94D712E981BA
:101AE000FA8182A593A5A4A5B5A59C01AD012C59A9
:101AF0003F4F4F4F5F4FA0EBB4E00E94681628ECB9
:101B000030E040E050E00E944916BA01A901485572
:101B100052406109710980910803909109039A016B
:101B2000281B390B3093070320930603A091B503BC
:101B3000B091B6030E94CE189B01AC01A091BD03E9
:101B4000B091BE030E94731628E631E040E050E0F9
:101B50000E944916CA01B9010E946B118091CB0302
:101B60009091CC03A091CD03B091CE031816190625
:101B70001A061B060CF049C18090B1039090B20385
:101B8000A090B303B090B40381149104A104B104F4
:101B900039F56091DB038091B7030E94D71260E0B2
:101BA0008091B9030E94D7120E94241369877A8713
:101BB0008B879C87C090D703D090D803E090D9033F
:101BC000F090DA038091CB039091CC03A091CD03E8
:101BD000B091CE03181619061A061B0604F1D0C0E0
:101BE000C090AD03D090AE03E090AF03F090B0038F
:101BF000C114D104E104F10421F40E9424136B0107
:101C00007C010E942413DC01CB018C199D09AE09D3
:101C1000BF0988159905AA05BB0598F3BACF9C01A1
:101C2000AD0121503109410951092093CB03309373
:101C3000CC034093CD035093CE038090C703909084
:101C4000C803A090C903B090CA03FFEF8F1A9F0A80
:101C5000AF0ABF0A8092C7039092C803A092C9033B
:101C6000B092CA038091C1039091C203019709F019
:101C700087C0211531054105510509F481C08091C6
:101C8000D3039091D403A091D503B091D6038217CA
:101C90009307A407B5070CF0E8C04090CF0350901D
:101CA000D0036090D1037090D203481459046A04A1
:101CB0007B040CF465C08091A9039091AA03A091C4
:101CC000AB03B091AC0389839A83AB83BC83D5010A
:101CD000C40142E0880F991FAA1FBB1F4A95D1F784
:101CE0009C01AD012F5F3F4F4F4F5F4F2D833E83D0
:101CF0004F835887D701C601880F991FAA1FBB1FA2
:101D000029813A814B815C81280F391F4A1F5B1F53
:101D1000CA01B9012D813E814F8158850E94491623
:101D2000D701C601821B930BA40BB50B8093D7037D
:101D30009093D803A093D903B093DA038414950445
:101D4000A604B7040CF08DC0880F991FAA1FBB1FF3
:101D500029813A814B815C81280F391F4A1F5B1F03
:101D6000CA01B9012D813E814F8158850E944916D3
:101D70006093A9037093AA038093AB039093AC0381
:101D80000E942413AB01A985BA854A1B5B0B5A83B9
:101D90004983452B79F40E9424134B015C010E9476
:101DA000241386169706A806B906C9F3E1E0F0E009
:101DB000FA83E98361E08091B9030E94D7120E94FF
:101DC00024136093AD037093AE038093AF0390939D
:101DD000B00329813A81C901A0E0B0E08C159D05CE
:101DE000AE05BF052CF4C81AD90AEA0AFB0A04C0DA
:101DF000C12CD12C7601C394C092B103D092B2030E
:101E0000E092B303F092B40310C01092AD031092AD
:101E1000AE031092AF031092B0031092B103109270
:101E2000B2031092B3031092B4038091B103909166
:101E3000B203A091B303B091B403892B8A2B8B2BEF
:101E400009F08CCE2091080330910903809106039C
:101E500090910703820F931F9093090380930803C7
:101E600042C060E070E0CB0183CF8090A9039090E6
:101E7000AA03A090AB03B090AC03ACEFBFEF0E94FD
:101E800076162B013C013FEF431A530A630A730A8B
:101E9000D701C601880F991FAA1FBB1FBC01CD0126
:101EA000680D791D8A1D9B1DA30192010E94491690
:101EB000D701C601821B930BA40BB50B8093D703EC
:101EC0009093D803A093D903B093DA03880F991F96
:101ED000AA1FBB1FBC01CD01680D791D8A1D9B1D6A
:101EE000A301920143CF2C960FB6F894DEBF0FBE2C
:101EF000CDBFDF91CF91FF90EF90DF90CF90BF905B
:101F0000AF909F908F907F906F905F904F900895CB
:101F10001F920F920FB60F9211242F938F939F93BE
:101F2000EF93FF93E0911A03F0911B038081E091FE
:101F30002003F091210382FD12C090818091230340
:101F40008F5F8F7320912403821751F0E091230358
:101F5000F0E0E65FFC4F958F8093230301C0808102
:101F6000FF91EF919F918F912F910F900FBE0F9046
:101F70001F901895FC01848DDF01A80FB11DA35A95
:101F8000BF4F2C91848D90E001968F739927848F99
:101F9000A689B7892C93A089B1898C9183708064BC
:101FA0008C93938D848D981306C00288F389E02D5D
:101FB00080818F7D80830895EF92FF920F931F930E
:101FC000CF93DF93EC0181E0888F9B8D8C8D9813EC
:101FD00005C0E889F989808185FD26C0F62E0B8D24
:101FE00010E00F5F1F4F0F731127E02E8C8DE8124A
:101FF0000CC00FB607FCFACFE889F989808185FF0C
:10200000F5CFCE010E94BA0FF1CF8B8DFE01E80F04
:10201000F11DE35AFF4FF0829FB7F8940B8FEA89C6
:10202000FB89808180620AC09FB7F894EE89FF899E
:102030006083E889F98980818370806480839FBF91
:1020400081E090E0DF91CF911F910F91FF90EF9091
:102050000895CF93DF93EC01888D8823C9F0EA8936
:10206000FB89808185FD05C0A889B9898C9186FD91
:102070000FC00FB607FCF5CF808185FFF2CFA8898E
:10208000B9898C9185FFEDCFCE010E94BA0FE7CFC1
:10209000DF91CF910895CF92DF92EF92FF92FC01F2
:1020A0001082118212821382DB0120E030E04D9118
:1020B00050E0022E02C0440F551F0A94E2F7052E8D
:1020C000000C660B770BC080D180E280F3804C2936
:1020D0005D296E297F294083518362837383285F42
:1020E0003F4F2032310519F7FF90EF90DF90CF90EE
:1020F0000895CF92DF92EF92FF9220E030E06A01E4
:102100007B01022E04C0F694E794D794C7940A94F6
:10211000D2F7FC01C192CF01285F3F4F2032310539
:1021200071F7FF90EF90DF90CF900895CF92DF92FC
:10213000EF92FF92CF93DF93EC016A017B01E88974
:10214000F98982E080834115514E61057105B1F036
:1021500060E079E08DE390E0A70196010E947B1694
:10216000DA01C9010197A109B109B695A79597951B
:1021700087959C01211580E13807A8F0E889F98945
:10218000108260E874E88EE190E0A70196010E9459
:102190007B16DA01C9010197A109B109B695A79586
:1021A000979587959C01EC85FD853083EE85FF85AD
:1021B0002083188EEC89FD8986E08083EA89FB897B
:1021C000808180618083EA89FB8980818860808347
:1021D000EA89FB89808180688083EA89FB89808124
:1021E0008F7D8083DF91CF91FF90EF90DF90CF9034
:1021F0000895CF93DF9390E0FC01E057FF4F2491C7
:10220000FC01E458FF4F8491882361F190E0880F2E
:10221000991FFC01E859FF4FC591D491FC01EE587C
:10222000FF4FA591B491611109C09FB7F8948881BF
:10223000209582238883EC912E230BC0623061F4B9
:102240009FB7F8948881322F309583238883EC914F
:102250002E2B2C939FBF06C08FB7F894E8812E2BAE
:1022600028838FBFDF91CF910895CF92DF92EF92B5
:10227000FF920F931F93CF93DF936C017A018B0131
:10228000C0E0D0E0CE15DF0581F0D8016D918D0161
:10229000D601ED91FC910190F081E02DC6010995E8
:1022A000892B11F02196EECF7E01C701DF91CF91EE
:1022B0001F910F91FF90EF90DF90CF9008958AE0EB
:1022C00093E00E94AF0821E0892B09F420E0822FDF
:1022D00008950E94BD192F923F924F925F926F9284
:1022E0007F928F929F92AF92BF92CF92DF92EF92A6
:1022F000FF920F931F93CF93DF936B017C0180912B
:10230000CB039091CC03A091CD03B091CE03009765
:10231000A105B10529F1DCF34091D3035091D40319
:102320006091D5037091D603481759076A077B0758
:102330000CF02AC18C0D9D1DAE1DBF1DF7FE07C000
:1023400084179507A607B70714F4DB01CA01809329
:10235000CB039093CC03A093CD03B093CE0314C1D1
:10236000D701C6018827B7FD83959927AA27BB27E0
:102370009093DC038093DB031092AD031092AE03C5
:102380001092AF031092B003F7FE08C0F094E094EF
:10239000D094C094C11CD11CE11CF11CC092CB0391
:1023A000D092CC03E092CD03F092CE031092C703FB
:1023B0001092C8031092C9031092CA031092A90385
:1023C0001092AA031092AB031092AC038091C10348
:1023D0009091C2032091BF033091C0030091B503D7
:1023E0001091B603C091BD03D091BE03019709F0CF
:1023F00099C0209FC001219F900D309F900D112406
:102400006CE370E00E94BA180091C3031091C403FA
:102410009B01DB010E94CE189B01AC01DE010E94F2
:1024200073169801220F331F032E000C440B550B1B
:102430000E94491649015A012093CF033093D003DB
:102440004093D1035093D2032090C5033090C6032C
:102450002101032C000C66087708D8010E9473162E
:10246000A30192010E9449162093D3033093D40311
:102470004093D5035093D603D501C401820F931F17
:10248000A41FB51FC816D906EA06FB061CF5A7014E
:102490009601C301B2010E94AA189801220D331DB2
:1024A000032E000C440B550B0E9449162093CF03BA
:1024B0003093D0034093D1035093D203C21AD30A6E
:1024C000E40AF50AC092D303D092D403E092D50374
:1024D000F092D603C09FB001C19F700DD09F700DC8
:1024E0001124072E000C880B990B0E9456179B0194
:1024F000AC0160E070E080E090E40E94AC160E94C5
:10250000551820E03AE045E259E40E94E2170E94A3
:102510001E176093D7037093D8038093D9039093C9
:10252000DA0332C0032E000C440B550B60E077E851
:1025300083E993E00E944916CA01B9019801110F7D
:10254000440B550B0E944916CA01B9019E01DD0FCB
:10255000440B550B0E9449162093D7033093D803A0
:102560004093D9035093DA031092CF031092D00313
:102570001092D1031092D2031092D3031092D4037D
:102580001092D5031092D603DF91CF911F910F9136
:10259000FF90EF90DF90CF90BF90AF909F908F9083
:1025A0007F906F905F904F903F902F90089590E0B4
:1025B000FC01EC55FF4F2491FC01E057FF4F349193
:1025C000FC01E458FF4FE491EE2309F43CC02223C0
:1025D00039F1233091F038F42130A9F0223001F59F
:1025E00084B58F7D12C0273091F02830A1F02430BF
:1025F000B9F4809180008F7D03C0809180008F7737
:10260000809380000DC084B58F7784BD09C0809110
:10261000B0008F7703C08091B0008F7D8093B000B1
:10262000F0E0EE0FFF1FEE58FF4FA591B4919FB75A
:10263000F894611104C08C913095382302C0EC915C
:102640003E2B3C939FBF08953FB7F8948091E203DF
:102650009091E303A091E403B091E50326B5A89B14
:1026600005C02F3F19F00196A11DB11D3FBFBA2F24
:10267000A92F982F8827820F911DA11DB11DBC0184
:10268000CD0142E0660F771F881F991F4A95D1F749
:1026900008952FB7F8946091DE037091DF03809165
:1026A000E0039091E1032FBF08950F931F93CF9301
:1026B000DF93CDB7DEB72A970FB6F894DEBF0FBE13
:1026C000CDBF8C018EE391E09A8389831B821C82AB
:1026D0001D821E821F82188619861A86D801ED91E6
:1026E000FC910190F081E02DAE014F5F5F4F6AE0F9
:1026F00070E0C80109950E944913F801608771874D
:10270000828793872A960FB6F894DEBF0FBECDBF9F
:10271000DF91CF911F910F9108951F920F920FB6E5
:102720000F9211242F933F938F939F93AF93BF9357
:102730008091DE039091DF03A091E003B091E1036B
:102740003091DD0323E0230F2D3720F40196A11DE6
:10275000B11D05C026E8230F0296A11DB11D2093CF
:10276000DD038093DE039093DF03A093E003B09337
:10277000E1038091E2039091E303A091E403B0911F
:10278000E5030196A11DB11D8093E2039093E3033D
:10279000A093E403B093E503BF91AF919F918F9114
:1027A0003F912F910F900FBE0F901F9018951F9281
:1027B0000F920FB60F9211242F933F934F935F9375
:1027C0006F937F938F939F93AF93BF93EF93FF93F9
:1027D0008AE093E00E94BA0FFF91EF91BF91AF9111
:1027E0009F918F917F916F915F914F913F912F9129
:1027F0000F900FBE0F901F90189510920D0310921E
:102800000C0388EE93E0A0E0B0E080930E03909379
:102810000F03A0931003B09311038AE491E0909307
:102820000B0380930A0385EC90E090931703809349
:10283000160384EC90E0909319038093180380ECC6
:1028400090E090931B0380931A0381EC90E09093A7
:102850001D0380931C0382EC90E090931F038093F0
:102860001E0386EC90E09093210380932003109246
:10287000230310922403109225031092260384E967
:1028800091E090932304809322048AE093E0909354
:1028900025048093240480E091EEA0E0B0E08093D2
:1028A000260490932704A0932804B093290410923F
:1028B000D8068CE791E09093E7068093E6061092A5
:1028C000E8061092E9061092EA061092EB061092C2
:1028D000F1061092F0061092F2061092F306109292
:1028E000F4061092F5061092FB061092FA0610926A
:1028F000FC061092FD061092FE061092FF06109242
:10290000030710920207ECE9F6E0AAE6B6E01D9292
:102910001D92EA17FB07D9F78EEC96E011921192FF
:102920008E179F07D9F7AAE3B4E0E2E5F5E01D9220
:10293000EA17FB07E1F7119286E0EA36F807D9F7C4
:102940001092360410923704109238041092390411
:1029500084E791E09093A8038093A7031092AD03BE
:102960001092AE031092AF031092B0031092B10315
:102970001092B2031092B3031092B40388EC90E06B
:102980009093B6038093B50388E090E09093B803EA
:102990008093B70389E090E09093BA038093B903E2
:1029A0008DE090E09093BC038093BB0321E030E086
:1029B0003093BE032093BD031092C0031092BF0357
:1029C0001092C2031092C10388EE93E09093C40367
:1029D0008093C3039093C6038093C5038EE991E06F
:1029E0009093E7038093E60388E691E09093ED03EC
:1029F0008093EC038CE591E09093EF038093EE03DA
:102A00001092F0031092F1031092F2031092F3036C
:102A10001092F4031092F5031092F6031092F7034C
:102A20001092F8031092F9031092FA031092FB032C
:102A30008DEC92E09093FD038093FC039093FF0351
:102A40008093FE031092000410920104109202047D
:102A500010920304109204041092050410920604CC
:102A600010920704109208041092090410920A04AC
:102A700010920B0410920C0410920D0410920E048C
:102A800010920F041092100410921104109212046C
:102A9000109213041092140410921504109216044C
:102AA00010921704109218041092190410921A042C
:102AB00090931C0480931B0410921D048AE29DE0F5
:102AC00090931F0480931E043093210420932004CC
:102AD00088EF92E09093EB038093EA030895789453
:102AE00084B5826084BD84B5816084BD85B5826013
:102AF00085BD85B5816085BD80916E0081608093C4
:102B00006E0010928100809181008260809381002C
:102B1000809181008160809381008091800081603C
:102B2000809380008091B10084608093B100809197
:102B3000B00081608093B00080917A0084608093BF
:102B40007A0080917A00826080937A0080917A0086
:102B5000816080937A0080917A00806880937A0007
:102B60001092C10080E091EEA0E0B0E080932604D6
:102B700090932704A0932804B093290440E051EED9
:102B800060E070E08AE093E00E9496104091260495
:102B900050912704609128047091290480912404A5
:102BA000909125040E9496101092CF061092CE06A6
:102BB0001092D1061092D0061092D5061092D4062B
:102BC0001092D3061092D206ECE9F6E080E090E095
:102BD00021913191232B81F4FC01EE0FFF1FE4566C
:102BE000F94F26EE33E0318320838C599F4F909329
:102BF000E9038093E80304C001968931910541F708
:102C000061E08091B7030E94F91060E08091B70302
:102C10000E94D71261E08091B9030E94F91061E02F
:102C20008091B9030E94D7128091BB039091BC039D
:102C30008F3F2FEF920741F061E00E94F91060E0B2
:102C40008091BB030E94D71288E790E09093C00365
:102C50008093BF0361E070E087EA93E00E94C808B8
:102C60008091BB039091BC038F3F2FEF920719F027
:102C700061E00E94D7128091BB039091BC038F3F0B
:102C80002FEF920719F060E00E94D7120E94BB0854
:102C9000FDCF052E97FB1EF400940E94601657FD91
:102CA00007D00E947B1607FC03D04EF40C946016EC
:102CB00050954095309521953F4F4F4F5F4F089568
:102CC00090958095709561957F4F8F4F9F4F089598
:102CD0000E949D16A59F900DB49F900DA49F800DFE
:102CE000911D11240895B7FF0C9468160E94681670
:102CF000821B930B0895A1E21A2EAA1BBB1BFD0198
:102D00000DC0AA1FBB1FEE1FFF1FA217B307E407CA
:102D1000F50720F0A21BB30BE40BF50B661F771F22
:102D2000881F991F1A9469F7609570958095909502
:102D30009B01AC01BD01CF010895A29FB001B39FDB
:102D4000C001A39F700D811D1124911DB29F700DB4
:102D5000811D1124911D08950E94C0160C94A8177E
:102D60000E94A11758F00E949A1740F029F45F3F83
:102D700029F00C94911751110C94DC170C949717AF
:102D80000E94B91768F39923B1F3552391F3951B6A
:102D9000550BBB27AA2762177307840738F09F5F7C
:102DA0005F4F220F331F441FAA1FA9F335D00E2EE9
:102DB0003AF0E0E832D091505040E695001CCAF756
:102DC0002BD0FE2F29D0660F771F881FBB1F261719
:102DD00037074807AB07B0E809F0BB0B802DBF01F0
:102DE000FF2793585F4F3AF09E3F510578F00C94BF
:102DF00091170C94DC175F3FE4F3983ED4F386956B
:102E000077956795B795F7959F5FC9F7880F911DDF
:102E10009695879597F90895E1E0660F771F881FCB
:102E2000BB1F621773078407BA0720F0621B730B7E
:102E3000840BBA0BEE1F88F7E09508950E942517C2
:102E40006894B1110C94DC1708950E94C11788F0A2
:102E50009F5798F0B92F9927B751B0F0E1F0660F5E
:102E6000771F881F991F1AF0BA95C9F714C0B1309F
:102E700091F00E94DB17B1E008950C94DB17672FE7
:102E8000782F8827B85F39F0B93FCCF386957795CE
:102E90006795B395D9F73EF49095809570956195B7
:102EA0007F4F8F4F9F4F0895E89409C097FB3EF4E2
:102EB00090958095709561957F4F8F4F9F4F992387
:102EC000A9F0F92F96E9BB279395F6958795779505
:102ED0006795B795F111F8CFFAF4BB0F11F460FFC5
:102EE0001BC06F5F7F4F8F4F9F4F16C0882311F01D
:102EF00096E911C0772321F09EE8872F762F05C031
:102F0000662371F096E8862F70E060E02AF09A95CB
:102F1000660F771F881FDAF7880F9695879597F9C0
:102F2000089597F99F6780E870E060E008959FEF4B
:102F300080EC089500240A94161617061806090650
:102F4000089500240A94121613061406050608951F
:102F5000092E0394000C11F4882352F0BB0F40F4A7
:102F6000BF2B11F460FF04C06F5F7F4F8F4F9F4FE7
:102F7000089557FD9058440F551F59F05F3F71F069
:102F80004795880F97FB991F61F09F3F79F08795D0
:102F90000895121613061406551FF2CF4695F1DF59
:102FA00008C0161617061806991FF1CF86957105E9
:102FB000610508940895E894BB2766277727CB011D
:102FC00097F908950E94F5170C94A8170E949A1774
:102FD00038F00E94A11720F0952311F00C9491175E
:102FE0000C94971711240C94DC170E94B91770F3F6
:102FF000959FC1F3950F50E0551F629FF001729F9E
:10300000BB27F00DB11D639FAA27F00DB11DAA1FAC
:10301000649F6627B00DA11D661F829F2227B00DF9
:10302000A11D621F739FB00DA11D621F839FA00D84
:10303000611D221F749F3327A00D611D231F849FD4
:10304000600D211D822F762F6A2F11249F5750402B
:103050009AF0F1F088234AF0EE0FFF1FBB1F661FA6
:10306000771F881F91505040A9F79E3F510580F06F
:103070000C9491170C94DC175F3FE4F3983ED4F363
:10308000869577956795B795F795E7959F5FC1F713
:10309000FE2B880F911D9695879597F9089519F441
:1030A00016F40C9497170C9495180E94C117B8F356
:1030B0009923C9F3B6F39F57550B87FF0E94A318B6
:1030C0000024A0E640EA900180585695979528F490
:1030D000805C660F771F881F20F026173707480788
:1030E00030F4621B730B840B202931294A2BA695DF
:1030F00017940794202531254A2758F7660F771F24
:10310000881F20F026173707480730F4620B730B2F
:10311000840B200D311D411DA09581F7B901842F2D
:103120009158880F9695879508959F3F31F091505B
:1031300020F4879577956795B795880F911D96959B
:10314000879597F9089591505040660F771F881F13
:10315000D2F70895DB018F939F930E946816BF9169
:10316000AF91A29F800D911DA39F900DB29F900DD6
:103170001124089597FB072E16F4009407D077FDCD
:1031800009D00E94DD1807FC05D03EF4909581958A
:103190009F4F0895709561957F4F08950E949D16E9
:1031A000332312F48A1B9B0B0C94D8180E949D1693
:1031B000B7FF0895821B930B0895AA1BBB1B51E117
:1031C00007C0AA1FBB1FA617B70710F0A61BB70B97
:1031D000881F991F5A95A9F780959095BC01CD013C
:1031E0000895EE0FFF1F0590F491E02D0994A0E0E3
:1031F000B0E0EDEFF8E10C94F01AEC01009721F447
:10320000CB010E94CB19B4C0FC01E60FF71F9C0153
:1032100022503109E217F30708F4A8C0D9010D9133
:103220001C91119706171707B0F00530110508F427
:103230009BC0C80104978617970708F495C00250F1
:103240001109061B170B019311936D937C93CF010A
:103250000E94631A89C05B01A01AB10A4C01800E5A
:10326000911EA0910607B0910707612C712CE12CEB
:10327000F12C109709F446C08D919C911197A815D7
:10328000B905B1F56C0142E0C40ED11CCA14DB04CF
:1032900078F14C018A189B08640142E0C40ED11CED
:1032A0001296BC9012971396AC91B5E0CB16D10450
:1032B00040F0B282A38391828082D9016D937C9386
:1032C00009C00E5F1F4F800F911FF901918380830A
:1032D000EB2DFA2FE114F10431F0D7011396FC9392
:1032E000EE93129741C0F0930707E09306073CC0A6
:1032F0006816790608F43C017D0112960D90BC9188
:10330000A02DB7CF809104079091050788169906E4
:10331000E1F466167706C8F48091000190910101EE
:10332000009741F48DB79EB740910401509105017B
:10333000841B950BE817F907C8F4F0930507E09391
:103340000407F901718360830FC0CB010E94CB1980
:103350007C01009759F0A801BE010E94C219CE015C
:103360000E94631AC70104C0CE0102C080E090E051
:10337000CDB7DEB7EEE00C940C1B81E090E0F89442
:103380000C94231BFB01DC0102C001900D92415003
:103390005040D8F708950F931F93CF93DF93823057
:1033A000910510F482E090E0E0910607F0910707A4
:1033B00020E030E0A0E0B0E0309719F14081518189
:1033C0000281138148175907C8F08417950769F4DB
:1033D000109731F012960C93129713961C9327C0F6
:1033E000009306071093070722C02115310519F035
:1033F0004217530718F49A01BD01EF01DF01F801EC
:10340000DBCF21153105F9F0281B390B24303105AC
:1034100080F48A819B816115710521F0FB01938302
:10342000828304C09093070780930607FE013296BB
:1034300044C0FE01E20FF31F8193919322503109A2
:10344000398328833AC02091040730910507232B44
:1034500041F420910201309103013093050720933C
:10346000040720910001309101012115310541F43B
:103470002DB73EB74091040150910501241B350B37
:10348000E0910407F0910507E217F307A0F42E1B63
:103490003F0B2817390778F0AC014E5F5F4F2417B8
:1034A000350748F04E0F5F1F509305074093040700
:1034B0008193919302C0E0E0F0E0CF01DF91CF91E2
:1034C0001F910F910895CF93DF93009709F481C066
:1034D000FC01329713821282A0910607B091070770
:1034E000109781F420813181820F931F209104076E
:1034F000309105072817390751F5F0930507E09338
:10350000040767C0ED0120E030E0CE17DF0740F48C
:103510004A815B819E0141155105F1F0EA01F5CF29
:10352000D383C28340815181840F951FC817D90767
:1035300059F488819981840F951F02969183808325
:103540008A819B81938382832115310529F4F0932D
:103550000707E09306073DC0E901FB83EA83499131
:103560005991C40FD51FEC17FD0761F4808191813B
:10357000840F951F0296E901998388838281938144
:103580009B838A83E0E0F0E012968D919C911397E3
:10359000009719F0FD01DC01F7CF8D919C911197F7
:1035A0009D012E5F3F4F820F931F209104073091A2
:1035B00005072817390769F4309729F4109207078F
:1035C0001092060702C013821282B0930507A093DF
:1035D0000407DF91CF9108952F923F924F925F920F
:1035E0006F927F928F929F92AF92BF92CF92DF9213
:1035F000EF92FF920F931F93CF93DF93CDB7DEB778
:10360000CA1BDB0B0FB6F894DEBF0FBECDBF09940B
:103610002A88398848885F846E847D848C849B8462
:10362000AA84B984C884DF80EE80FD800C811B8170
:10363000AA81B981CE0FD11D0FB6F894DEBF0FBE9F
:0A364000CDBFED010895F894FFCF0F
:10364A00000008078000726F7373657269616C5FAE
:10365A006D7367732F52657175657374506172610A
:10366A006D0000000000FC050803960093000000AE
:10367A0000002E065E039C00990000000000EB008B
:10368A00A500A2009F0000000000DC0F35117E0893
:10369A002910AF088D08A108000000004C040F0192
:1036AA008A008700000000008F04C8019F099C0956
:1036BA0000000000C508C808000000002305BF0676
:1036CA0090008D00000000006911691169116911EB
:1036DA0000000000F808A609F30800000000150D14
:1036EA00A2099F099C0932313736646563616563B3
:1036FA0062636537386162633362393665663034CE
:10370A00396661626564007374645F6D7367732FF1
:10371A00486561646572003966306539386264618A
:10372A00363539383139383664646635336166611D
:10373A00376134306534390031316162643733318D
:10374A006332353933333236316364363138336272
:10375A00643132643632393500726F737365726957
:10376A00616C5F6D7367732F4C6F670030616435EE
:10377A003166383866633434383932663863313002
:10378A0036383430373736343630303500726F7366
:10379A0073657269616C5F6D7367732F546F7069BB
:1037AA0063496E666F006364373136366337346354
:1037BA00353532633331316662636332666535614A
:1037CA00376263323839007374645F6D7367732FBD
:1037DA0054696D65004D6573736167652066726F24
:1037EA006D206465766963652064726F70706564C4
:1037FA003A206D657373616765206C6172676572E3
:10380A00207468616E206275666665722E003737AD
:10381A00303736393239346437633736626331398F
:10382A003537643962363639323832653263007375
:10383A0064635F6D7367732F7374617465006D6180
:06384A006E75616C0000C8
:00000001FF
